:040000005DEF00F0C0
:100008004A82FACF06F0FBCF07F0E9CF08F0EACF33
:1000180009F0E1CF0AF0E2CF0BF0D9CF0CF0DACF3C
:100028000DF0F3CF0EF0F4CF0FF0F6CF10F0F7CFBE
:1000380011F0F8CF12F0F5CF13F0F2BCA0A605D05E
:10004800A1A603D09AEC0AF016D0F2BC9DA605D062
:100058009EA603D044EC03F00ED0F2BC9DA005D0C0
:100068009EA003D085EC09F006D0F2BCA3A403D06F
:10007800A4B4BEEC08F013C0F5FF12C0F8FF11C01D
:10008800F7FF10C0F6FF0FC0F4FF0EC0F3FF0DC05E
:10009800DAFF0CC0D9FF0BC0E2FF0AC0E1FF09C0BC
:1000A800EAFF08C0E9FF07C0FBFF06C0FAFF4A9253
:1000B800110029EF0AF0000E0001616F000E000127
:1000C800626F000E0001636F000E0001646F000E86
:1000D8000001606F0F0120B785D020EE01F0265097
:1000E800D9262750DA22DECF14F0DECF15F0DECF86
:1000F80016F0DECF17F026C0D9FF27C0DAFFDF5091
:10010800186E610E196E000E1A6E620E1B6E000ECE
:100118001C6E630E1D6E000E1E6E640E1F6E000EAA
:10012800206E63EC04F061C023FF62C024FF63C04B
:1001380021FF64C022FF20EE05F02650D926275063
:10014800DA22DF500F01256F20EE06F02650D9265F
:100158002750DA22DF500F01266F20EE07F02650D5
:10016800D9262750DA22DF500F01276F20EE08F03A
:100178002650D9262750DA22DF500F01286F20EEAB
:1001880009F02650D9262750DA22DF500F01296FAF
:1001980020EE0AF02650D9262750DA22DF500F0128
:1001A8002A6F20EE0BF02650D9262750DA22DF508E
:1001B8000F012B6F20EE0CF02650D9262750DA229B
:1001C800DF500F012C6F20EE0DF02650D926275056
:1001D800DA22DF500F012D6F0F012087010E000179
:1001E800606F12000F0110B785D020EE01F0265085
:1001F800D9262750DA22DECF14F0DECF15F0DECF75
:1002080016F0DECF17F026C0D9FF27C0DAFFDF507F
:10021800186E610E196E000E1A6E620E1B6E000EBD
:100228001C6E630E1D6E000E1E6E640E1F6E000E99
:10023800206E63EC04F061C013FF62C014FF63C05A
:1002480011FF64C012FF20EE05F02650D926275072
:10025800DA22DF500F01156F20EE06F02650D9265E
:100268002750DA22DF500F01166F20EE07F02650D4
:10027800D9262750DA22DF500F01176F20EE08F039
:100288002650D9262750DA22DF500F01186F20EEAA
:1002980009F02650D9262750DA22DF500F01196FAE
:1002A80020EE0AF02650D9262750DA22DF500F0117
:1002B8001A6F20EE0BF02650D9262750DA22DF508D
:1002C8000F011B6F20EE0CF02650D9262750DA229A
:1002D800DF500F011C6F20EE0DF02650D926275055
:1002E800DA22DF500F011D6F0F011087010E000188
:1002F800606F12000F0100B7120020EE01F02650C7
:10030800D9262750DA22DECF14F0DECF15F0DECF63
:1003180016F0DECF17F026C0D9FF27C0DAFFDF506E
:10032800186E610E196E000E1A6E620E1B6E000EAC
:100338001C6E630E1D6E000E1E6E640E1F6E000E88
:10034800206E63EC04F061C003FF62C004FF63C069
:1003580001FF64C002FF20EE05F02650D926275081
:10036800DA22DF500F01056F20EE06F02650D9265D
:100378002750DA22DF500F01066F20EE07F02650D3
:10038800D9262750DA22DF500F01076F20EE08F038
:100398002650D9262750DA22DF500F01086F20EEA9
:1003A80009F02650D9262750DA22DF500F01096FAD
:1003B80020EE0AF02650D9262750DA22DF500F0106
:1003C8000A6F20EE0BF02650D9262750DA22DF508C
:1003D8000F010B6F20EE0CF02650D9262750DA2299
:1003E800DF500F010C6F20EE0DF02650D926275054
:1003F800DA22DF500F010D6F0F010087010E000197
:10040800606F12003CEC0AF07080708A709E708CED
:10041800400E0001756F9C0E0001766F450E0001BD
:10042800776F75C01CF076C01DF077C01EF0000E07
:100438001F6E800E206E450E216E1FEC07F01CC04B
:1004480078F01DC079F01EC07AF078C022F079C02B
:1004580023F07AC024F0010EFCEC09F014C01CF063
:1004680015C01DF04FEC0AF01CC01FF01DC020F095
:100478001EC021F08FEC06F01FC066F020C067F0A8
:1004880021C068F0EDEC05F066C07BF067C07CF039
:1004980000017C510001846F7BC085F0010E0001D2
:1004A800956F340E0001966F060E976F000E986FC9
:1004B800000E996F080E00019A6F84C09BF085C0EA
:1004C8009CF084C09DF085C09EF084C09FF085C0DC
:1004D800A0F084C0A1F085C0A2F0950E266E000E93
:1004E800276E5FEC00F00C0E00017D6F020E00011C
:1004F800866F7D0E1D6E000E1E6E010E1F6E000EA5
:10050800216E3D0E206E860E226E000E236E19ECB3
:1005180009F0000186510001D8A4FBD7020E0001A2
:10052800866F7E0E1D6E000E1E6E010E1F6E000E73
:10053800216E280E206E860E226E000E236E3EEC73
:1005480009F0000186510001D8A4FBD7020E000172
:10055800866F7F0E1D6E000E1E6E010E1F6E000E42
:10056800216E290E206E860E226E000E236E3EEC42
:1005780009F0000186510001D8A4FBD7020E000142
:10058800866F800E1D6E000E1E6E010E1F6E000E11
:10059800216E2A0E206E860E226E000E236E3EEC11
:1005A80009F0000186510001D8A4FBD7020E000112
:1005B800866F810E1D6E000E1E6E010E1F6E000EE0
:1005C800216E2B0E206E860E226E000E236E3EECE0
:1005D80009F0000186510001D8A4FBD7020E0001E2
:1005E800866F820E1D6E000E1E6E010E1F6E000EAF
:1005F800216E2C0E206E860E226E000E236E3EECAF
:1006080009F0000186510001D8A4FBD7020E0001B1
:10061800866F830E1D6E000E1E6E010E1F6E000E7D
:10062800216E2D0E206E860E226E000E236E3EEC7D
:1006380009F0000186510001D8A4FBD7010E000182
:10064800876F350E0001886F060E896F000E8A6F5E
:10065800000E8B6F060E00018C6F7EC08DF07FC080
:100668008EF080C08FF081C090F082C091F083C07E
:1006780092F0870E266E000E276E5FEC00F0E5D62E
:100688009E96C6AEF9D0C69E000E3C6E20EE03F0D4
:100698003150D9263250DA22DECF04F0DDCF05F012
:1006A80004C0D9FF05C0DAFF010EDF6E000E316EFF
:1006B800000E326E12002CB212002AC031F02BC08C
:1006C80032F02AC0D9FF2BC0DAFFDF503B6E20EE94
:1006D80001F02A50D9262B50DA22DECF33F0DDCFB5
:1006E80034F0050E2A26000E2B22440E2A1808E1A3
:1006F800000E2B18D8A404D03F0E2A6E000E2B6EC5
:100708002C9028502A1804E129502B18D8B42C8290
:10071800C580020E3C6E1200C582020E3C6E1200AD
:10072800C5AC05D02E2A040EA6EC09F01200D8900C
:100738004530056E4430046E0450C96E44A003D0A1
:100748000B0E3C6E1200030E3C6E1200C5AC05D0B9
:100758002E2A040EA6EC09F01200C58244C004F04B
:1007680045C005F005C004F0056A060E0416000E23
:100778000516F00E0410446E0550456E4480010EB7
:10078800396E020E3C6E12003904D8B41AD033C048
:10079800D9FF34C0DAFFDECF44F0DDCF45F020EEDC
:1007A80003F03350D9263450DA22DECF2FF0DDCFD4
:1007B80030F020EE02F03350D9263450DA22DF50E0
:1007C8003A6E44C0C9FF44A003D0050E3C6E120027
:1007D800030E3C6E1200C5AC06D02E2AC59C050E31
:1007E800A6EC09F012003A063A28D8A40ED0050E55
:1007F8003326000E34223B2E04D0000EA6EC09F05E
:100808001200C582020E3C6E12002FC0D9FF30C004
:10081800DAFFDF50C96E2F4A302A1200C5AC06D065
:100828002E2A040EA6EC09F0C59C1200C586080EF7
:100838003C6E1200080E3C6EC58612002FC0D9FF10
:1008480030C0DAFFC9CFDFFF2F4A302A010E3A5EE7
:10085800D8B404D0C59A060E3C6E03D0C58A6EEC97
:100868000AF0C5881200000EA6EC09F012002E2A24
:10087800060EA6EC09F012003C50000AD8B41BD7AB
:10088800010AD8B449D7030AD8B47ED7010AD8B424
:10089800A2D7070AD8B4E7D7010AD8B4BFD7030A42
:1008A800D8B4C8D7010AD8B4DED70F0AD8B4C6D787
:1008B800020AD8B435D7010AD8B448D7D8D7000E19
:1008C800256E020E1818D8A481D01BC0D9FF1CC0F1
:1008D800DAFF14C0DFFF14C021F015C022F016C0E3
:1008E80023F017C024F022C021F023C022F024C036
:1008F80023F0246A21C014F022C015F023C016F09A
:1009080024C017F019C0D9FF1AC0DAFF14C0DFFFDE
:1009180014C021F015C022F016C023F017C024F02F
:1009280022C021F023C022F024C023F0246A21C071
:1009380014F022C015F023C016F024C017F014508C
:10094800030B256E14C021F015C022F016C023F049
:1009580017C024F0030ED8902136223623362436C9
:10096800E82EF9D721C014F022C015F023C016F0E4
:1009780024C017F01450E00B2524256E2550080FCD
:10098800256E2550EB0B1FC0D9FF20C0DAFFDF6EA4
:1009980014C021F015C022F016C023F017C024F0AF
:1009A80022C021F023C022F024C023F0246A21C0F1
:1009B80014F022C015F023C016F024C017F01DC093
:1009C800D9FF1EC0DAFF14C0DFFF120019C0D9FF1B
:1009D8001AC0DAFF000EDF6E1BC0D9FF1CC0DAFF99
:1009E800000EDF6E14C021F015C022F016C023F0EF
:1009F80017C024F0050ED890213622362336243627
:100A0800E82EF9D721C014F022C015F023C016F043
:100A180024C017F01FC0D9FF20C0DAFF14C0DFFFC1
:100A280014C021F015C022F016C023F017C024F01E
:100A380022C021F023C022F024C023F0246A21C060
:100A480014F022C015F023C016F024C017F01DC002
:100A5800D9FF1EC0DAFF14C0DFFF1200240E1D6E7E
:100A6800000E1E6E010E1F6E000E216E000E206E0F
:100A7800260E226E000E236E3EEC09F02650D8A4F6
:100A8800FDD7A00E2418D8B417D0240E1D6E000E62
:100A98001E6E010E1F6E000E216E000E206E260EB9
:100AA800226E000E236E3EEC09F02650D8A4FDD726
:100AB800A00E2418D8A41200000E256E020E266E71
:100AC800250E1D6E000E1E6E010E1F6E000E216E8D
:100AD8003D0E206E260E226E000E236E19EC09F0D4
:100AE8002650D8A4FDD7200E256E020E266E250EA0
:100AF8001D6E000E1E6E010E1F6E000E216E3F0E43
:100B0800206E260E226E000E236E19EC09F0265078
:100B1800D8A4FDD7020E266E240E1D6E000E1E6E82
:100B2800010E1F6E000E216E000E206E260E226E24
:100B3800000E236E3EEC09F02650D8A4FDD7A00E77
:100B48002418D8A4E7D7000E256E020E266E250EAF
:100B58001D6E000E1E6E010E1F6E000E216E3E0EE3
:100B6800206E260E226E000E236E19EC09F0265018
:100B7800D8A4FDD7000E256E020E266E250E1D6E1A
:100B8800000E1E6E010E1F6E000E216E070E206EE7
:100B9800260E226E000E236E19EC09F02650D8A4FA
:100BA800FDD7000E256E020E266E250E1D6E000E58
:100BB8001E6E010E1F6E000E216E3F0E206E260E59
:100BC800226E000E236E19EC09F02650D8B41200DC
:100BD800FCD768C06AF000016B6B6C6B000167356D
:100BE80000016A3701E36B8100016A510001746FEB
:100BF80000017451D8A40AD0000E0001666F000EDF
:100C0800676F000E686F000E696F1200170E000103
:100C18006A6F66C06BF067C06CF068C06DF0000169
:100C28006A2900016E6F05D00001D8906D336C33CE
:100C38006B3300016E2FF8D700016B5100016F6F05
:100C48000001678FFF0E00016617FF0E000167178E
:100C5800000E00016817000166510001706F000165
:100C680067510001716F000168510001726F000146
:100C7800736B8E0E0001745F000174AF1AD000010F
:100C88007451800A8F0FD8B00AD0000E0001666F29
:100C9800000E676F000E686F000E696F120000018A
:100CA800D89073337233713370330001743FF7D7C0
:100CB8001BD0170E0001746512D0000E0001666F7C
:100CC800000E676F000E686F000E696F120000015A
:100CD800D890703771377237733700017407000185
:100CE80074510001D8A4F3D700016F510001D8B4A2
:100CF80009D00001731F721F711F706D000E7123E0
:100D08007223732370C066F071C067F072C068F018
:100D180073C069F0120021C025F0266A276A2034C2
:100D2800253601E3268025500001606F00016051DF
:100D3800D8A407D0000E1F6E000E206E000E216E84
:100D4800120024C025F0266A276A2334253601E3D9
:100D5800268025500001656F00016551D8A407D091
:100D6800000E1F6E000E206E000E216E1200000194
:100D780065517B0F0001602721C065F024500001F8
:100D8800651B800E00016517208E238EFF0E22162C
:100D9800FF0E2316000E2416000E0001616F000ED0
:100DA8000001626F000E0001636F070E0001646F9F
:100DB8001FA009D02250000161272350000162239F
:100DC800245000016323D890213220321F32D8905A
:100DD8002236233624360001642FEAD7090E000193
:100DE800646F1FA009D02250000161272350000121
:100DF8006223245000016323D890213220321F320D
:100E08000001D8906333623361330001642FE9D75E
:100E180061C014F062C015F063C016F060C017F02E
:100E280065C018F018EC08F014C01FF015C020F0C9
:100E380016C021F012001EC022F0236A246A1D3455
:100E4800223601E3238022500001646F00016451BF
:100E5800D8A407D0000E1C6E000E1D6E000E1E6E6C
:100E6800120021C022F0236A246A2034223601E3CA
:100E7800238022500001656F00016551D8A407D076
:100E8800000E1C6E000E1D6E000E1E6E1200000E6F
:100E98000001616F000E0001626F000E0001636FB8
:100EA80000016551890F0001645F1EC065F0215083
:100EB8000001651B800E000165171D8EFF0E1C16B4
:100EC800FF0E1D16000E1E16208EFF0E1F16FF0E9B
:100ED8002016000E2116180E0001606F0001D89030
:100EE8006137623763371F501C5C20501D582150F2
:100EF8001E58D8A008D01F501C5E20501D5A2150E3
:100F08001E5A00016181D8901C361D361E3600011C
:100F1800602FE4D761C014F062C015F063C016F00A
:100F280064C017F065C018F018EC08F014C01CF085
:100F380015C01DF016C01EF01200800E6F6E6E50A8
:100F4800E00B800AD8A4FBD7000E726E000E0E01CB
:100F5800FA6F000E0E01FB6F000E0E01F86F000E07
:100F68000E01F96F0E01FE690E01FF690E01FC69A1
:100F78000E01FD69000E0E01E26F000E0E01E36F17
:100F8800880E0E01E06F800E0E01E16F000E0E015B
:100F9800E66F000E0E01E76FCC0E0E01E46FC00E77
:100FA8000E01E56F000E0E01EA6F000E0E01EB6FE9
:100FB800000E0E01E86F000E0E01E96F000E0E0123
:100FC800EE6F000E0E01EF6F000E0E01EC6F000EBB
:100FD8000E01ED6F000E0E01F26F000E0E01F36FA1
:100FE800000E0E01F06F000E0E01F16F000E0E01E3
:100FF800F66F000E0E01F76F000E0E01F46F000E73
:101008000E01F56F030E0E01436F980E0E01446F2B
:10101800010E0E01456F000E6F6E6ECF14F0E00EDC
:101028001416D8B41200F9D71750D8B405D01450F4
:1010380015101610D8A40CD0000E146E000E156EE4
:10104800000E166E1200172AD89016321532143276
:10105800000E1414196E000E15141A6EFE0E1614D6
:101068001B6E19501A101B10D8B40CD0ECD7172AC5
:10107800010E1426000E1522000E1622D8901632E4
:1010880015321432000E1414196E000E15141A6E4F
:10109800FF0E16141B6E19501A101B10D8B406D068
:1010A800E6D71706D89014361536163615BE03D06F
:1010B800020E1760F6D717A0159ED8901732175052
:1010C80016121850D8A4168E14C014F015C015F0B6
:1010D80016C016F01200196E2CB039D016C0D9FF00
:1010E80017C0DAFF020EDF6E20EE01F02850D92675
:1010F8002950DA2214C0DEFF15C0DDFF28C0D9FF51
:1011080029C0DAFF19C0DFFF20EE03F02850D926E6
:101118002950DA2216C0DEFF17C0DDFF050E28268B
:10112800000E2922440E281808E1000E2918D8A418
:1011380004D03F0E286E000E296E2C9228502A18D3
:101148000CE129502B18D8A408D02C8006D016C042
:10115800D9FF17C0DAFF010EDF6E16C0D9FF17C01E
:10116800DAFF020EDE18D8A412003C50D8A4FDD72E
:101178009E861200A49451CF03F052CF04F003507E
:10118800355C04503658D8A015D003C001F004C00F
:1011980002F0011E021E014A022A3550012636506D
:1011A8000222011E021E014A022AFF0E0124376E86
:1011B800FF0E0CD035C001F036C002F0011E021E31
:1011C800014A022A03500124376E04500220386E67
:1011D80003C035F004C036F0120019C01BF01AC065
:1011E8001CF0D8901B361C3614C0D9FF15C0DAFF86
:1011F8001BC0DEFF1CC0DDFF14C0D9FF15C0DAFF1D
:10120800000EDB8020EE02F01450D9261550DA22A9
:1012180018C0DFFF20EE03F01450D9261550DA224B
:1012280016C0DEFF17C0DDFF12002CB01CD0A80EC0
:10123800146E000E156E1DC016F01EC017F01FC0EC
:1012480018F020C019F021C01AF063EC09F0A80EBC
:10125800146E000E156E22C016F023C017F0010E92
:101268006FEC08F0120022C0D9FF23C0DAFF010E8C
:10127800DF6E12002CB01CD0A30E146E000E156E7B
:101288001DC016F01EC017F01FC018F020C019F0BE
:1012980021C01AF0F1EC08F0A30E146E000E156EC2
:1012A80022C016F023C017F0010E6FEC08F01200F0
:1012B80022C0D9FF23C0DAFF010EDF6E120019C069
:1012C8001BF01AC01CF0D8901B361C3614C0D9FF6E
:1012D80015C0DAFF1BC0DEFF1CC0DDFF20EE02F0E8
:1012E8001450D9261550DA2218C0DFFF20EE03F07B
:1012F8001450D9261550DA2216C0DEFF17C0DDFFBC
:1013080012009E904950CF6E48C0CEFF482803E196
:101318004928D8B403D0484A492A04D0000E496E57
:10132800000E486E46504710D8B4120001D812007B
:101338000500FA6E4650FD6E4750FE6EF850FF6E7F
:10134800FA501200036EC58420EE03F03150D926FE
:101358003250DA22DE50DE10D8B410D020EE03F07E
:101368003150D9263250DA22DECF01F0DDCF02F03B
:1013780001C0D9FF02C0DAFF03C0DFFF000E3C6ED8
:101388001200000ECD6E000EAA6ECF68F00ECE6E63
:10139800CE50CFCF16F0176A16C017F0166A16107F
:1013A800486E1750496E9E909D80320E146E150E31
:1013B800156E8EEC0AF097EC0AF01200000E8D6E96
:1013C800000E8C6E000E896E000E8A6E000E8B6EFB
:1013D800070E966EEF0E926EFB0E936E94689568EC
:1013E8000F015D697A0E0F015C6F0F015B691200D6
:1013F800186E18C016F016461646C2501618830BFB
:101408001618C26EC280C282C2B2FED7C450176E0E
:10141800166AC3501624146E000E1720156E12009B
:101428003F0E2A6E000E2B6E3F0E286E000E296EA0
:101438002C822C90000E2E6E000EC76E280EC66EE3
:10144800030EC86E9E969D86120000EEA3F00A0E4B
:10145800EE6AE806FDE100EE28F01E0EEE6AE806E8
:10146800FDE14A904A92000EF86E000106EF02F084
:1014780093EC0AF0E2EC09F085EC0AF014EC0AF0BF
:1014880061EC0AF07AEC0AF0C5EC09F0A1EC07F07F
:1014980032EC05F012001CC014F01DC015F0166ADD
:1014A8008E0E176E000E186E18EC08F014C01CF0A3
:1014B80015C01DF016C01EF01200070E0F01506F68
:1014C800000E0F01516F000E0F01526F9992A494F4
:1014D800A3841200050E3326000E34223B2E03D0BF
:1014E800040E3C6E1200010E3C6E1200010EC26E1C
:1014F800980EC16E8E0EC06E000EC46E000EC36EC6
:101508001200600ED36E000ED26E400E9B6E000E5F
:101518009A6E120014C046F015C047F01200D09E13
:0E152800F28EF28C1200CD8012001200120022
:020000040020DA
:08000000FFFFFFFFFFFFFFFF00
:020000040030CA
:0E0000001D037F7CFF8991FF0FC00FE00F40B2
:00000001FF
